{
  "contractName": "Shop",
  "abi": [
    {
      "inputs": [],
      "payable": false,
      "stateMutability": "nonpayable",
      "type": "constructor"
    },
    {
      "anonymous": false,
      "inputs": [
        {
          "indexed": true,
          "internalType": "address",
          "name": "_from",
          "type": "address"
        }
      ],
      "name": "Register",
      "type": "event"
    },
    {
      "anonymous": false,
      "inputs": [
        {
          "indexed": true,
          "internalType": "address",
          "name": "_from",
          "type": "address"
        },
        {
          "indexed": false,
          "internalType": "string",
          "name": "_productName",
          "type": "string"
        },
        {
          "indexed": false,
          "internalType": "uint256",
          "name": "_purchaseId",
          "type": "uint256"
        }
      ],
      "name": "Transfer",
      "type": "event"
    },
    {
      "constant": true,
      "inputs": [
        {
          "internalType": "uint256",
          "name": "",
          "type": "uint256"
        }
      ],
      "name": "allProducts",
      "outputs": [
        {
          "internalType": "uint256",
          "name": "productId",
          "type": "uint256"
        },
        {
          "internalType": "string",
          "name": "productName",
          "type": "string"
        },
        {
          "internalType": "uint256",
          "name": "price",
          "type": "uint256"
        },
        {
          "internalType": "string",
          "name": "description",
          "type": "string"
        }
      ],
      "payable": false,
      "stateMutability": "view",
      "type": "function"
    },
    {
      "constant": true,
      "inputs": [],
      "name": "owner",
      "outputs": [
        {
          "internalType": "address payable",
          "name": "",
          "type": "address"
        }
      ],
      "payable": false,
      "stateMutability": "view",
      "type": "function"
    },
    {
      "constant": false,
      "inputs": [
        {
          "internalType": "string",
          "name": "_name",
          "type": "string"
        },
        {
          "internalType": "string",
          "name": "_email",
          "type": "string"
        }
      ],
      "name": "createAccount",
      "outputs": [],
      "payable": false,
      "stateMutability": "nonpayable",
      "type": "function"
    },
    {
      "constant": false,
      "inputs": [
        {
          "internalType": "uint256",
          "name": "_productId",
          "type": "uint256"
        }
      ],
      "name": "buyProduct",
      "outputs": [],
      "payable": true,
      "stateMutability": "payable",
      "type": "function"
    },
    {
      "constant": true,
      "inputs": [
        {
          "internalType": "uint256",
          "name": "_index",
          "type": "uint256"
        }
      ],
      "name": "myOrders",
      "outputs": [
        {
          "internalType": "uint256",
          "name": "",
          "type": "uint256"
        },
        {
          "internalType": "string",
          "name": "",
          "type": "string"
        },
        {
          "internalType": "uint256",
          "name": "",
          "type": "uint256"
        }
      ],
      "payable": false,
      "stateMutability": "view",
      "type": "function"
    },
    {
      "constant": true,
      "inputs": [],
      "name": "getAccountBalance",
      "outputs": [
        {
          "internalType": "uint256",
          "name": "",
          "type": "uint256"
        }
      ],
      "payable": false,
      "stateMutability": "view",
      "type": "function"
    }
  ],
  "bytecode": "0x60806040523480156200001157600080fd5b50336000806101000a81548173ffffffffffffffffffffffffffffffffffffffff021916908373ffffffffffffffffffffffffffffffffffffffff1602179055506200005c620004eb565b6040518060800160405280600081526020016040518060400160405280600a81526020017f426173696320706c616e000000000000000000000000000000000000000000008152508152602001670de0b6b3a764000081526020016040518060400160405280601581526020017f353020474220617661696c61626c652073706163650000000000000000000000815250815250905080600460008081526020019081526020016000206000820151816000015560208201518160010190805190602001906200012e92919062000513565b506040820151816002015560608201518160030190805190602001906200015792919062000513565b5090505060038190806001815401808255809150509060018203906000526020600020906004020160009091929091909150600082015181600001556020820151816001019080519060200190620001b192919062000513565b50604082015181600201556060820151816003019080519060200190620001da92919062000513565b505050506040518060800160405280600181526020016040518060400160405280600d81526020017f416476616e63656420706c616e000000000000000000000000000000000000008152508152602001671bc16d674ec8000081526020016040518060400160405280601681526020017f35303020474220617661696c61626c65207370616365000000000000000000008152508152509050806004600060018152602001908152602001600020600082015181600001556020820151816001019080519060200190620002b192919062000513565b50604082015181600201556060820151816003019080519060200190620002da92919062000513565b50905050600381908060018154018082558091505090600182039060005260206000209060040201600090919290919091506000820151816000015560208201518160010190805190602001906200033492919062000513565b506040820151816002015560608201518160030190805190602001906200035d92919062000513565b505050506040518060800160405280600281526020016040518060400160405280600f81526020017f456e746572707269736520706c616e000000000000000000000000000000000081525081526020016729a2241af62c000081526020016040518060400160405280601481526020017f3520544220617661696c61626c6520737061636500000000000000000000000081525081525090508060046000600281526020019081526020016000206000820151816000015560208201518160010190805190602001906200043492919062000513565b506040820151816002015560608201518160030190805190602001906200045d92919062000513565b5090505060038190806001815401808255809150509060018203906000526020600020906004020160009091929091909150600082015181600001556020820151816001019080519060200190620004b792919062000513565b50604082015181600201556060820151816003019080519060200190620004e092919062000513565b5050505050620005c2565b6040518060800160405280600081526020016060815260200160008152602001606081525090565b828054600181600116156101000203166002900490600052602060002090601f016020900481019282601f106200055657805160ff191683800117855562000587565b8280016001018555821562000587579182015b828111156200058657825182559160200191906001019062000569565b5b5090506200059691906200059a565b5090565b620005bf91905b80821115620005bb576000816000905550600101620005a1565b5090565b90565b610f6280620005d26000396000f3fe6080604052600436106100555760003560e01c8063192892871461005a5780636896fabf146101b95780638642269e146101e45780638da5cb5b14610212578063cfaaef5614610269578063fd6141de14610397575b600080fd5b34801561006657600080fd5b506101b76004803603604081101561007d57600080fd5b810190808035906020019064010000000081111561009a57600080fd5b8201836020820111156100ac57600080fd5b803590602001918460018302840111640100000000831117156100ce57600080fd5b91908080601f016020809104026020016040519081016040528093929190818152602001838380828437600081840152601f19601f8201169050808301925050505050505091929192908035906020019064010000000081111561013157600080fd5b82018360208201111561014357600080fd5b8035906020019184600183028401116401000000008311171561016557600080fd5b91908080601f016020809104026020016040519081016040528093929190818152602001838380828437600081840152601f19601f820116905080830192505050505050509192919290505050610459565b005b3480156101c557600080fd5b506101ce610672565b6040518082815260200191505060405180910390f35b610210600480360360208110156101fa57600080fd5b8101908080359060200190929190505050610691565b005b34801561021e57600080fd5b50610227610a6c565b604051808273ffffffffffffffffffffffffffffffffffffffff1673ffffffffffffffffffffffffffffffffffffffff16815260200191505060405180910390f35b34801561027557600080fd5b506102a26004803603602081101561028c57600080fd5b8101908080359060200190929190505050610a91565b604051808581526020018060200184815260200180602001838103835286818151815260200191508051906020019080838360005b838110156102f25780820151818401526020810190506102d7565b50505050905090810190601f16801561031f5780820380516001836020036101000a031916815260200191505b50838103825284818151815260200191508051906020019080838360005b8381101561035857808201518184015260208101905061033d565b50505050905090810190601f1680156103855780820380516001836020036101000a031916815260200191505b50965050505050505060405180910390f35b3480156103a357600080fd5b506103d0600480360360208110156103ba57600080fd5b8101908080359060200190929190505050610bfe565b6040518084815260200180602001838152602001828103825284818151815260200191508051906020019080838360005b8381101561041c578082015181840152602081019050610401565b50505050905090810190601f1680156104495780820380516001836020036101000a031916815260200191505b5094505050505060405180910390f35b60001515600560003373ffffffffffffffffffffffffffffffffffffffff1673ffffffffffffffffffffffffffffffffffffffff16815260200190815260200160002060020160009054906101000a900460ff16151514610522576040517f08c379a000000000000000000000000000000000000000000000000000000000815260040180806020018281038252601a8152602001807f596f752061726520616c7265616479207265676973746572656400000000000081525060200191505060405180910390fd5b81600560003373ffffffffffffffffffffffffffffffffffffffff1673ffffffffffffffffffffffffffffffffffffffff1681526020019081526020016000206000019080519060200190610578929190610dc0565b5080600560003373ffffffffffffffffffffffffffffffffffffffff1673ffffffffffffffffffffffffffffffffffffffff16815260200190815260200160002060010190805190602001906105cf929190610dc0565b506001600560003373ffffffffffffffffffffffffffffffffffffffff1673ffffffffffffffffffffffffffffffffffffffff16815260200190815260200160002060020160006101000a81548160ff0219169083151502179055503373ffffffffffffffffffffffffffffffffffffffff167feeda149c76076b34d4b9d8896c2f7efc0d33d1c7b53ea3c5db490d64613f603a60405160405180910390a25050565b60003373ffffffffffffffffffffffffffffffffffffffff1631905090565b600460008281526020019081526020016000206002015434146106ff576040517f08c379a0000000000000000000000000000000000000000000000000000000008152600401808060200182810382526027815260200180610f076027913960400191505060405180910390fd5b600560003373ffffffffffffffffffffffffffffffffffffffff1673ffffffffffffffffffffffffffffffffffffffff16815260200190815260200160002060020160009054906101000a900460ff166107c1576040517f08c379a000000000000000000000000000000000000000000000000000000000815260040180806020018281038252601d8152602001807f596f75204d757374204265205265676973746572656420746f2042757900000081525060200191505060405180910390fd5b60016000815480929190600101919050556002819055506107e0610e40565b60405180606001604052808381526020016040518060400160405280601281526020017f4f72646572206e6f742066696e69736865640000000000000000000000000000815250815260200160025481525090506000809054906101000a900473ffffffffffffffffffffffffffffffffffffffff1673ffffffffffffffffffffffffffffffffffffffff166108fc349081150290604051600060405180830381858888f1935050505015801561089b573d6000803e3d6000fd5b506040518060400160405280600e81526020017f4f726465722066696e69736865640000000000000000000000000000000000008152508160200181905250600660003373ffffffffffffffffffffffffffffffffffffffff1673ffffffffffffffffffffffffffffffffffffffff168152602001908152602001600020819080600181540180825580915050906001820390600052602060002090600302016000909192909190915060008201518160000155602082015181600101908051906020019061096b929190610e61565b50604082015181600201555050503373ffffffffffffffffffffffffffffffffffffffff167f0844b14fe102ea307aadd2235f4dbb2e0c33cc0466085bd36b25e54ddf9c4a94600460008581526020019081526020016000206001016002546040518080602001838152602001828103825284818154600181600116156101000203166002900481526020019150805460018160011615610100020316600290048015610a595780601f10610a2e57610100808354040283529160200191610a59565b820191906000526020600020905b815481529060010190602001808311610a3c57829003601f168201915b5050935050505060405180910390a25050565b6000809054906101000a900473ffffffffffffffffffffffffffffffffffffffff1681565b60038181548110610a9e57fe5b9060005260206000209060040201600091509050806000015490806001018054600181600116156101000203166002900480601f016020809104026020016040519081016040528092919081815260200182805460018160011615610100020316600290048015610b505780601f10610b2557610100808354040283529160200191610b50565b820191906000526020600020905b815481529060010190602001808311610b3357829003601f168201915b505050505090806002015490806003018054600181600116156101000203166002900480601f016020809104026020016040519081016040528092919081815260200182805460018160011615610100020316600290048015610bf45780601f10610bc957610100808354040283529160200191610bf4565b820191906000526020600020905b815481529060010190602001808311610bd757829003601f168201915b5050505050905084565b600060606000600660003373ffffffffffffffffffffffffffffffffffffffff1673ffffffffffffffffffffffffffffffffffffffff1681526020019081526020016000208481548110610c4e57fe5b906000526020600020906003020160000154600660003373ffffffffffffffffffffffffffffffffffffffff1673ffffffffffffffffffffffffffffffffffffffff1681526020019081526020016000208581548110610caa57fe5b9060005260206000209060030201600101600660003373ffffffffffffffffffffffffffffffffffffffff1673ffffffffffffffffffffffffffffffffffffffff1681526020019081526020016000208681548110610d0557fe5b906000526020600020906003020160020154818054600181600116156101000203166002900480601f016020809104026020016040519081016040528092919081815260200182805460018160011615610100020316600290048015610dac5780601f10610d8157610100808354040283529160200191610dac565b820191906000526020600020905b815481529060010190602001808311610d8f57829003601f168201915b505050505091509250925092509193909250565b828054600181600116156101000203166002900490600052602060002090601f016020900481019282601f10610e0157805160ff1916838001178555610e2f565b82800160010185558215610e2f579182015b82811115610e2e578251825591602001919060010190610e13565b5b509050610e3c9190610ee1565b5090565b60405180606001604052806000815260200160608152602001600081525090565b828054600181600116156101000203166002900490600052602060002090601f016020900481019282601f10610ea257805160ff1916838001178555610ed0565b82800160010185558215610ed0579182015b82811115610ecf578251825591602001919060010190610eb4565b5b509050610edd9190610ee1565b5090565b610f0391905b80821115610eff576000816000905550600101610ee7565b5090565b9056fe56616c7565204d75737420626520457175616c20746f205072696365206f662050726f64756374a265627a7a7231582098983d8f35e3fd8d7dc1b81178a943fab48eb4d03e3ece83793ea4bddf41eb8564736f6c63430005100032",
  "source": "pragma solidity ^0.5.16;\r\n\r\ncontract Shop {\r\n  address payable public owner;\r\n  uint id;\r\n  uint purchaseId;\r\n  product[] public allProducts;\r\n\r\n  event Transfer(address indexed _from, string _productName, uint _purchaseId);\r\n  event Register(address indexed _from);\r\n\r\n  constructor() public {\r\n    owner = msg.sender;\r\n\r\n    // добавление продуктов\r\n    product memory prod = product(0, \"Basic plan\", 1 ether, \"50 GB available space\");\r\n    products[0] = prod;\r\n    allProducts.push(prod);\r\n    prod = product(1, \"Advanced plan\", 2 ether, \"500 GB available space\");\r\n    products[1] = prod;\r\n    allProducts.push(prod);\r\n    prod = product(2, \"Enterprise plan\", 3 ether, \"5 TB available space\");\r\n    products[2] = prod;\r\n    allProducts.push(prod);\r\n  }\r\n\r\n  struct product {\r\n      uint productId;\r\n      string productName;\r\n      uint price;\r\n      string description;\r\n  }\r\n  struct ordersPlaced {\r\n      string productId;\r\n      uint purchaseId;\r\n      address orderedBy;\r\n  }\r\n  struct user {\r\n      string name;\r\n      string email;\r\n      bool isCreated;\r\n  }\r\n  struct orders {\r\n      uint productId;\r\n      string orderStatus;\r\n      uint purchaseId;\r\n  }\r\n\r\n  mapping (uint => product) products;\r\n  mapping (address=> user) users;\r\n  mapping (address=>orders[]) userOrders;\r\n\r\n  function createAccount(string memory _name, string memory _email) public {\r\n    require(users[msg.sender].isCreated == false, \"You are already registered\");\r\n\r\n    users[msg.sender].name = _name;\r\n    users[msg.sender].email = _email;\r\n    users[msg.sender].isCreated = true;\r\n\r\n    emit Register(msg.sender);\r\n  }\r\n\r\n  function buyProduct(uint _productId) public payable {\r\n    require(msg.value == products[_productId].price, \"Value Must be Equal to Price of Product\");\r\n    require(users[msg.sender].isCreated, \"You Must Be Registered to Buy\");\r\n\r\n    purchaseId = id++;\r\n    orders memory order = orders(_productId, \"Order not finished\", purchaseId);\r\n\r\n    owner.transfer(msg.value);\r\n\r\n    order.orderStatus = \"Order finished\";\r\n    userOrders[msg.sender].push(order);\r\n\r\n    emit Transfer(msg.sender, products[_productId].productName, purchaseId);\r\n  }\r\n\r\n  function myOrders (uint _index) public view returns(uint, string memory, uint) {\r\n    return(\r\n      userOrders[msg.sender][_index].productId,\r\n      userOrders[msg.sender][_index].orderStatus,\r\n      userOrders[msg.sender][_index].purchaseId\r\n    );\r\n  }\r\n\r\n  function getAccountBalance() public view returns (uint) {\r\n    return msg.sender.balance;\r\n  }\r\n}\r\n",
  "sourcePath": "C:\\BlockchainWebApp\\contracts\\Shop.sol",
  "compiler": {
    "name": "solc",
    "version": "0.5.16+commit.9c3226ce.Emscripten.clang"
  },
  "schemaVersion": "3.1.0",
  "updatedAt": "2020-05-19T18:02:04.933Z",
  "networkType": "ethereum",
  "devdoc": {
    "methods": {}
  },
  "userdoc": {
    "methods": {}
  }
}